:020000040800F2
:100000001804002001010008490F0008210E000813
:10001000450F00086D010008EB0F0008000000000C
:10002000000000000000000000000000790F000840
:10003000F9010008000000004D0F00087B0F0008C8
:100040001B0100081B0100081B0100081B01000820
:100050001B0100081B010008FB0100081902000831
:100060001B0100081B0100081B0100081B01000800
:100070001B0100081B0100081B0100081B010008F0
:100080001B0100081B0100081B0100081B010008E0
:100090001B0100081B0100081B01000823020008C7
:1000A0001B0100081B0100081B0100081B010008C0
:1000B0001B0100081B010008000000001B010008D4
:1000C0001B01000800000000000000001B010008E8
:1000D000000000001B0100081B01000800000000D8
:1000E000050200081B0100081B010008DFF80CD006
:1000F00000F02AF8004800474910000818040020C2
:100100000648804706480047FEE7FEE7FEE7FEE7B1
:10011000FEE7FEE7FEE7FEE7FEE7FEE7E90F000881
:10012000ED000008D2B201E000F8012B491EFBD21D
:1001300070470022F6E710B513460A4604461946F2
:10014000FFF7F0FF204610BD064C074D06E0E068C3
:1001500040F0010394E8070098471034AC42F6D30E
:10016000FFF7C8FF8C100008AC10000800BFFEE7C6
:1001700010B54FF400611D4800F010FA04461C4809
:100180000088012830D13CB90020194908804FF47B
:100190000051184800F00AFA4FF48061134800F04B
:1001A000FDF9012806D14103124800F0FFF90020B3
:1001B0000F49488002210D4800F0F0F9012806D1CE
:1001C00041030C4800F0F2F9002009498880012120
:1001D000064800F0E3F9012806D14103054800F084
:1001E000E5F900200249C88010BD0000000C014064
:1001F0000000002000100140704710B5012000F001
:1002000039F810BD10B54FF4806000F033F84FF4AA
:10021000006000F02FF810BD10B5022000F02AF8A1
:1002200010BD10B5202000F025F8402000F022F885
:10023000802000F01FF810BD72B600BFFEE700007E
:10024000B0F5006F02D10121094A1180B0F5806F2D
:1002500002D10121064A5180022802D10121044A1B
:100260009180012802D10121014AD180704700000C
:100270000000002010B5044604480068204020B16A
:10028000024804602046FFF7DBFF10BD1404014064
:100290002DE9F84703460022944666E14FF0010835
:1002A00008FA02F4D1F8008008EA0400A0427DD1E7
:1002B000DFF8CCA2D1F80480A8EB0A09D0453AD0E7
:1002C00014DCB8F1030F50D009DCB8F1000F31D0C5
:1002D000B8F1010F1CD0B8F1020F49D120E0B8F1FC
:1002E000110F18D0B8F1120F42D11EE0B9F5881FD6
:1002F00025D006DCB9F5803F20D0B9F5801F37D175
:100300001AE0B9F5001F18D0B9F5041F30D117E075
:10031000D1F80CC02DE0D1F80C8008F1040C28E0D5
:10032000D1F80C8008F1080C23E0D1F80C8008F11A
:100330000C0C1EE000BF00BF00BF00BF00BF00BF2D
:10034000D1F80880B8F1000F02D14FF0040C0BE097
:10035000D1F80880B8F1010F03D14FF0080C1C61EF
:1003600002E04FF0080C5C6103E04FF0000C00E08D
:1003700000BF00BFFF2801D8984601E003F1040840
:100380004646FF2802D84FEA820803E0A2F1080897
:100390004FEA88084746D6F800804FF00F0909FA5F
:1003A00007F928EA09080CFA07F900E085E048EAAD
:1003B0000908C6F80080D1F8048008F08058B8F128
:1003C000805F7AD100BFDFF8BC81D8F8188048F090
:1003D0000108DFF8B091C9F81880C846D8F818802D
:1003E00008F00108CDF8008000BF00BF4FEAB9381F
:1003F0004FEA920958F829504FEA82784FEA187963
:100400004FF00F0808FA09F825EA0805DFF87881A7
:10041000434502D14FF000080FE0DFF870814345FB
:1004200002D14FF0010808E0DFF86481434502D1B2
:100430004FF0020801E04FF003084FEA82794FEADB
:10044000197908FA09F848EA0505DFF848814FEA02
:10045000920948F82950D1F8048008F48038B8F59A
:10046000803F0AD1DFF83081D8F8008048EA0008E0
:10047000DFF82491C9F8008009E0DFF81C81D8F882
:10048000008028EA0008DFF81091C9F80080D1F850
:10049000048008F40038B8F5003F0FD1DFF8F88089
:1004A00008F10408D8F8008048EA0008DFF8E8906E
:1004B00009F10409C9F800800EE055E0DFF8D880A2
:1004C00008F10408D8F8008028EA0008DFF8C8908E
:1004D00009F10409C9F80080D1F8048008F48018F3
:1004E000B8F5801F0ED1DFF8B08008F10808D8F801
:1004F000008048EA0008DFF8A09009F10809C9F86F
:1005000000800DE0DFF8908008F10808D8F800803E
:1005100028EA0008DFF8809009F10809C9F800808E
:10052000D1F8048008F40018B8F5001F0ED1DFF8E8
:10053000688008F10C08D8F8008048EA0008DFF865
:10054000589009F10C09C9F800800DE0DFF84880E7
:1005500008F10C08D8F8008028EA0008DFF8389085
:1005600009F10C09C9F80080521CD1F8008028FA62
:1005700002F8B8F1000F7FF491AEBDE8F8870000F3
:10058000000011100010024000080140000C014062
:100590000010014008000140000401400246936839
:1005A0000B400BB1012000E00020704710B5C2687D
:1005B00021EA020302EA010443EA0443036110BD95
:1005C0000AB1016101E00B04036170470148006852
:1005D00070470000080000200348006803490978BC
:1005E00008440149086070470800002010000020FE
:1005F00010B50848006840F0100006490860032064
:1006000000F09EF8012000F007F800F02BF8002021
:1006100010BD00000020024070B504460E4800786E
:100620004FF47A71B1FBF0F00C490968B1FBF0F5B9
:10063000284600F0DBFB08B1012070BD102C07D26A
:1006400000222146501E00F03DF80548046001E0FC
:100650000120F2E70020F0E7100000201400002045
:100660000C00002008B500BF0D48806940F0010073
:100670000B4988610846806900F00100009000BFC6
:1006800000BF00BF0846C06940F08050C8610846FE
:10069000C06900F08050009000BF00BF08BD00009E
:1006A0000010024001460846002809DB00F01F0345
:1006B00001229A4043099B0003F1E023C3F8002183
:1006C00000BF70472DE9F05F80460D4616460027B3
:1006D00000F08EFC074639462A46334601F00700F3
:1006E000C0F1070ABAF1040F02D94FF0040A01E081
:1006F000C0F1070AD14600F1040ABAF1070F02D28D
:100700004FF0000A01E0A0F1030AD4464FF0010ABD
:100710000AFA09FAAAF1010A0AEA020A0AFA0CFA22
:100720004FF0010B0BFA0CFBABF1010B0BEA030BC7
:100730004AEA0B042146404600F062FCBDE8F09F07
:1007400000BF00F00702064B19684FF6FF0319407F
:10075000044B0B4343EA0221014B196000BF704771
:100760000CED00E00000FA0570B504460D460CB92A
:10077000012070BD5A48006800F00700A8420ED260
:100780005748006820F0070028435549086008468C
:10079000006800F00700A84201D00120E9E72078B6
:1007A00000F0020002281DD1207800F00400042887
:1007B00005D14C48406840F4E0604A4948602078E0
:1007C00000F00800082805D14648406840F4605011
:1007D000444948604348406820F0F000A16808435D
:1007E00040494860207800F0010078B36068012833
:1007F00006D13C48006800F4003090B90120B8E709
:100800006068022806D13748006800F0007040B9DF
:100810000120AEE73348006800F0020008B901206B
:10082000A7E73048406820F00300616808432D497D
:100830004860FFF7CBFE064609E0FFF7C7FE801BC6
:1008400041F28831884202D9032092E707E0254827
:10085000406800F00C006168B0EB810FEDD12048DA
:10086000006800F00700A8420ED91D48006820F07B
:10087000070028431A4908600846006800F007008E
:10088000A84201D0012074E7207800F00400042879
:1008900007D11448406820F4E060E168084311493A
:1008A0004860207800F00800082808D10D4840680A
:1008B00020F46050216940EAC1000A49486000F014
:1008C00019F808494968C1F30311074A515CC84047
:1008D0000649086006480068FFF79EFE002048E7CA
:1008E0000020024000100240741000081400002094
:1008F0000C000020F0B585B00FF26C0C9CE8E01005
:1009000001A8A0E8E0101CA52D6800950021002298
:10091000002300240020194D696801F00C05F5B191
:10092000042D02D0082D19D101E0154819E001ADC0
:10093000C1F38346AC5D01F4803555B10F4D6D6850
:10094000C5F340451DF805200D4D6543B5FBF2F399
:1009500002E00C4D04FB05F3184602E000BF084816
:1009600000BF00BF05B0F0BD02030405060708097B
:100970000A0B0C0D0E0F10100102000000100240B7
:1009800000127A0000093D00F8B504460CB90120B8
:10099000F8BD207800F00100002878D0F8484068C1
:1009A00000F00C0004280CD0F548406800F00C0062
:1009B000082811D1F248406800F48030B0F5803F3B
:1009C0000AD1EF48006800F4003000285FD060686A
:1009D00000285CD10120DBE700BF6068B0F5803FF4
:1009E00006D1E748006840F48030E549086028E017
:1009F000606858B9E248006820F48030E049086037
:100A00000846006820F4802008601AE06068B0F5AD
:100A1000A02F0BD1DA48006840F48020D849086044
:100A20000846006840F4803008600AE0D448006856
:100A300020F48030D24908600846006820F4802005
:100A4000086000BF606888B1FFF7C0FD054606E09A
:100A5000FFF7BCFD401B642801D9032098E7C84874
:100A6000006800F400300028F2D010E0FFF7AEFD7F
:100A7000054606E0FFF7AAFD401B642801D90320C4
:100A800086E7BF48006800F400300028F2D12078E3
:100A900000F00200022857D1B948406800F00C006D
:100AA00050B1B748406800F00C00082818D1B4488D
:100AB000406800F4803098B9B148006800F0020046
:100AC00020B12069012801D0012061E7AC4800680D
:100AD00020F0F800616940EAC100A949086033E0EC
:100AE0002069E8B10120A7490860FFF76FFD0546BE
:100AF00006E0FFF76BFD401B022801D9032047E702
:100B00009F48006800F002000028F2D09C4800686E
:100B100020F0F800616940EAC1009949086013E0DB
:100B2000002098490860FFF751FD054606E0FFF7F1
:100B30004DFD401B022801D9032029E79048006899
:100B400000F002000028F2D1207800F00800082808
:100B50002DD1A069B8B101208B490860FFF736FD9F
:100B6000054606E0FFF732FD401B022801D90320AD
:100B70000EE78348406A00F002000028F2D001200E
:100B800000F0E6F913E000207F490860FFF71EFD42
:100B9000054606E0FFF71AFD401B022801D9032095
:100BA000F6E67748406A00F002000028F2D120788B
:100BB00000F00400042873D100277148C06900F0D8
:100BC000805070B900BF6E48C06940F080506C49D9
:100BD000C8610846C06900F08050009000BF00BFA7
:100BE00001276A48006800F48070B0B9674800685F
:100BF00040F4807065490860FFF7E8FC054606E0B0
:100C0000FFF7E4FC401B642801D90320C0E65F48DD
:100C1000006800F480700028F2D000BFE06801286E
:100C200006D15748006A40F001005549086227E0A4
:100C3000E06858B95248006A20F001005049086243
:100C40000846006A20F00400086219E0E068052800
:100C50000BD14B48006A40F004004949086208463D
:100C6000006A40F0010008620AE04548006A20F08E
:100C70000100434908620846006A20F00400086247
:100C800000BFE068A0B1FFF7A1FC054609E0FFF74F
:100C90009DFC401B41F28831884202D9032077E64F
:100CA00022E03748006A00F002000028EFD012E08E
:100CB000FFF78CFC054608E0FFF788FC401B41F27B
:100CC0008831884201D9032062E62D48006A00F08D
:100CD00002000028F0D1012F05D12948C06920F079
:100CE00080502749C86100BFE069C8B32448406804
:100CF00000F00C00082860D0E069022848D10020EC
:100D000020490866FFF762FC054606E0FFF75EFC37
:100D1000401B022801D903203AE61948006800F078
:100D200000700028F2D1206AB0F5803F07D1144846
:100D3000406820F40030A168084311494860D4E9B4
:100D4000080108430E49496821F4741108430C490D
:100D5000486001200B490866FFF738FC054607E0AC
:100D60003DE0FFF733FC401B022801D903200FE6CA
:100D70000348006800F000700028F2D02FE0000067
:100D800000100240000042428004424200700040D5
:100D9000002014490866FFF719FC054606E0FFF736
:100DA00015FC401B022801D90320F1E50E4800681C
:100DB00000F000700028F2D111E0E069012800D1B4
:100DC000E6E50948466806F48031206A814204D18C
:100DD00006F47011606A814201D00120D8E500203C
:100DE000D6E50000000042420010024070B5044603
:100DF0002546681EB0F1807F01D301200FE0681EF8
:100E00004FF0E02148610F214FF0FF3000F0F8F87B
:100E100000204FF0E021886107200861002070BDAC
:100E200000BFFEE700B585B000200190029003905E
:100E3000049000BF3E48806940F010003C49886142
:100E40000846806900F01000009000BF00BF00BF9E
:100E50000846806940F0200088610846806900F0FB
:100E60002000009000BF00BF00BF0846806940F02E
:100E7000040088610846806900F00400009000BF0B
:100E800000BF00BF0846806940F00800886108463E
:100E9000806900F00800009000BF00BF01225103EC
:100EA0002448FFF78DFB4FF4005001900120029081
:100EB000002003900220049001A91E48FFF7E8F9E2
:100EC000E02001901C4802900120039001A91B48DA
:100ED000FFF7DEF940F60340019017480290012029
:100EE000039001A91648FFF7D3F90022022106203A
:100EF000FFF7E8FB0620FFF7D5FB002202210720C1
:100F0000FFF7E0FB0720FFF7CDFB002202211720AF
:100F1000FFF7D8FB1720FFF7C5FB0022022128208E
:100F2000FFF7D0FB2820FFF7BDFB05B000BD000098
:100F30000010024000100140000021100008014094
:100F4000000C014000BFFEE700BFFEE77047000055
:100F500008B508490968C9084FF47A72B1FBF2F183
:100F60004143009100BF00BF00994A1E0092002932
:100F7000F9D108BD14000020704710B5FFF72CFB15
:100F800010BD00B58FB0282105A8FFF7D2F81421B5
:100F90006846FFF7CEF80120059000040690002077
:100FA00007900120099002200C90C1030D914FF48D
:100FB000E0110E9105A8FFF7E7FC08B1FFF73CF937
:100FC0000F20009002200190002002904FF48060DA
:100FD00003900020049002216846FFF7C5FB08B18A
:100FE000FFF72AF90FB000BD704700BFFEE7000011
:100FF00002480068C0F30220704700000CED00E0DA
:1010000010B5002804DB0A07130E054A135406E046
:101010000A07140E034A00F00F031B1FD45410BD1F
:1010200000E400E018ED00E002E008C8121F08C16B
:10103000002AFAD170477047002001E001C1121F59
:10104000002AFBD170470000FFF7D2FAFFF799FFA3
:10105000FFF7E8FE0BE0FFF78BF84FF40051044870
:10106000FFF7A4FA4FF400510148FFF79FFAF2E7A7
:101070000010014000000000000000000102030415
:10108000060708090000000001020304AC10000874
:10109000000000201800000028100008C4100008FC
:1010A00018000020000400003810000800000000B4
:1010B000000000000000000010000000010000001F
:0410C0000024F40014
:04000005080000ED02
:00000001FF
