:020000040800F2
:1000000010070020890100082F1200087510000851
:100010002D1200088B020008DF1400080000000009
:100020000000000000000000000000003312000883
:100030008D0200080000000031120008351200088F
:10004000A3010008A3010008A3010008A301000800
:10005000A3010008A3010008A3010008A3010008F0
:10006000A3010008A3010008A3010008A3010008E0
:10007000A3010008A3010008A3010008A3010008D0
:10008000A3010008A3010008A3010008A3010008C0
:10009000A3010008A3010008A3010008A3010008B0
:1000A000A3010008A3010008A3010008A3010008A0
:1000B000A1120008AD12000800000000A301000812
:1000C000A30100080000000000000000A3010008D8
:1000D00000000000A3010008A301000800000000C8
:1000E000A3010008A3010008A301000800F002F822
:1000F00000F03AF80AA090E8000C82448344AAF188
:100100000107DA4501D100F02FF8AFF2090EBAE885
:100110000F0013F0010F18BFFB1A43F0010318473B
:100120006C1400008C140000103A24BF78C878C109
:10013000FAD8520724BF30C830C144BF04680C60ED
:10014000704700000023002400250026103A28BF35
:1001500078C1FBD8520728BF30C148BF0B60704739
:100160001FB51FBD10B510BD00F058F81146FFF7C0
:10017000F7FF01F0C5F900F076F803B4FFF7F2FFDE
:1001800003BC00F07BF8000009488047094800479D
:10019000FEE7FEE7FEE7FEE7FEE7FEE7FEE7FEE737
:1001A000FEE7FEE704480549054A064B7047000094
:1001B0009D120008ED00000810010020100700202B
:1001C00010030020100300204FF0000200B513467A
:1001D00094469646203922BFA0E80C50A0E80C5067
:1001E000B1F12001BFF4F7AF090728BFA0E80C5018
:1001F00048BF0CC05DF804EB890028BF40F8042B11
:1002000008BF704748BF20F8022B11F0804F18BF7D
:1002100000F8012B7047704770477047754600F033
:1002200029F8AE4605006946534620F0070085468A
:1002300018B020B5FFF7B6FFBDE820404FF000062C
:100240004FF000074FF000084FF0000B21F00701BE
:10025000AC46ACE8C009ACE8C009ACE8C009ACE801
:10026000C0098D4670470446AFF300802046FFF773
:1002700084FF000000487047AC00002001491820AE
:10028000ABBEFEE7260002007047FEE7704772B67D
:10029000FEE700002DE9F84FDFF89C910024A9F15A
:1002A000040B23460F2709F1040AABF1040EBBE04F
:1002B0000125A5402A40AA4276D1DFF880C14E68C8
:1002C000A6EB0C0866452BD00DDC032E34D005DCE4
:1002D00036B3012E19D0022E2FD11BE0112E16D0CD
:1002E000122E2AD119E0B8F5881F19D006DCB8F50E
:1002F000803F15D0B8F5801F1FD111E0B8F5001F61
:100300000ED0B8F5041F18D10AE0CB6815E0CB6811
:100310001B1D12E0CB6808330FE0CB680C330CE0F8
:100320008B682BB1012B4FF0080303D0456104E02B
:10033000042302E0056100E00023FF2A01D80646FD
:1003400001E000F104064FEA840501D9A5F120057A
:10035000D6F8008007FA05FC28EA0C0803FA05F530
:1003600048EA0508C6F800804D68ED005BD5344DBD
:10037000AE6946F00106AE61AD6924F0030605F0F2
:10038000010500952F4D06EB050CDCF80850A6077B
:10039000360F07FA06F825EA0805DFF8AC80404575
:1003A00003D14FF0000810E03DE0DFF8A0804045A9
:1003B00002D14FF0010808E0DFF89480404502D1F7
:1003C0004FF0020801E04FF0030808FA06F848EA87
:1003D0000508CCF808804D68D9F80060ED024D465C
:1003E00001D5164300E096432E604D68DAF80060B0
:1003F000AD02554601D5164300E096432E604D6888
:10040000DBF80060AD035D4601D5164300E096437E
:100410002E604D68DEF80060ED03754601D5164389
:1004200000E096432E60641C0A6832FA04F57FF4FB
:100430003FAFBDE8F88F0000080401400000111034
:10044000001002400000014000080140000C014083
:10045000001001408068084000D0012070470AB1B8
:10046000016170470904FBE701488068704700009C
:100470000000002070B5040011D021684CF6CC407B
:100480000860216845F255500860D4E900014160D8
:100490002168A0688860FFF7E7FF05460DE00120AE
:1004A00070BD00BFFFF7E0FF401B272805D920687B
:1004B000C068800701D0032070BD2068C068800735
:1004C000F0D121684AF6AA200860002070BD000023
:1004D0000248816802781144816070470000002062
:1004E000074810B5016841F010010160032000F0D9
:1004F0006DF80F2000F006F800F024F8002010BD81
:100500000020024070B50D4D04464FF47A712878F2
:10051000B1FBF0F00A490968B1FBF0F000F0B4FA61
:1005200048B9102C07D200222146501E00F02EF8A8
:1005300000206C6070BD012070BD00000000002034
:100540000C000020094808B5816941F00101816172
:10055000816901F001010091C16941F08051C161DF
:10056000C06900F08050009008BD000000100240FB
:10057000002809DB00F01F020121914040098000A2
:1005800000F1E020C0F8001170470000F0B40E4BFD
:100590001B680C46C3F30223C3F10705042D00D9E1
:1005A0000425191D072901D2002300E0DB1E0126C6
:1005B00006FA05F1491E214099409E40761E1640DC
:1005C0003143F0BC00F08CBF0CED00E0064900F0B8
:1005D000070208684FF6FF03184040EA0220034A6A
:1005E00010430860704700000CED00E00000FA05C1
:1005F0002DE9F0470F46050061D0434E306800F00A
:100600000700B84209D2306820F007003843306054
:10061000306800F00700B84251D128683B4C810790
:1006200012D5400703D5606840F4E0606060287828
:10063000000703D5606840F4605060606068A96896
:1006400020F0F000084360602878C00728D0686870
:10065000012810D02168022810D0890700292EDA3D
:10066000616821F0030101436160FFF7FDFE8046F0
:1006700041F288390DE021688903EFE78901EDE750
:10068000FFF7F2FEA0EB0801494502D90320BDE8BF
:10069000F0876068696800F00C00B0EB810FEFD163
:1006A000306800F00700B8420BD9306820F007002E
:1006B00038433060306800F00700B84201D00120B4
:1006C000E5E72878400705D56068E96820F4E06030
:1006D000084360602878000706D56068296920F41F
:1006E000605040EAC100606000F018F86168084A94
:1006F000C1F30311515CC840064908600648006810
:10070000FFF700FF0020C2E7002002400010024077
:100710007A1500080C000020040000200E4A5168E1
:100720000E4801F00C03042B11D0082B0FD10C48FC
:10073000C1F38343C903C05C0AD55168084AC1F3B9
:100740004041921E515C054A5043B0FBF1F07047A6
:1007500004494843704700000010024000127A002C
:100760006A15000800093D002DE9F84F040070D01B
:100770002078C04DC00749D06868C0F381000128C7
:1007800007D06868C0F38100022809D16868C003F7
:1007900006D52868800339D560680028E7D035E0A1
:1007A0006068B0F5803F0BD010B1B0F5A02F11D02C
:1007B000286820F480302860286820F4802002E037
:1007C000286840F480302860606890B1FFF74CFEE4
:1007D00006460AE0286840F480202860F0E700BF61
:1007E000FFF742FE801B642873D828688003F7D582
:1007F0000CE0FFF739FE064605E000BFFFF734FEC8
:10080000801B6428F0D828688003F7D420789A4E9B
:1008100080074FF001094FF0000839D5686810F0E3
:100820000C0F07D06868C0F38100022809D16868FE
:10083000C00306D42868800714D52069012808D190
:1008400010E02069B0B1C6F80090FFF70DFE074632
:1008500005E00AE1FFF708FEC01B0228C4D828689B
:100860008007F7D52868616920F0F80040EAC100E8
:1008700028600DE0C6F80080FFF7F6FD074604E0AB
:10088000FFF7F2FDC01B022823D828688007F7D4A1
:10089000207800072CD57948A169D9B1C0F800901B
:1008A000FFF7E2FD074604E0FFF7DEFDC01B02286C
:1008B0000FD8686A8007F7D571484FF4FA5100687D
:1008C000B0FBF1F0009000BF0098411E0091FAD2F9
:1008D0000EE080E0C0F80080FFF7C6FD074604E0A8
:1008E000FFF7C2FDC01B022875D8686A8007F7D4DD
:1008F0002078400760D5E8690027C00008D4E8697F
:1009000040F08050E861E869012700F080500090D5
:100910005C480168C90513D40168834641F48071BD
:100920000160FFF7A1FD824606E000BFFFF79CFDD6
:10093000A0EB0A0064284ED8DBF80000C005F5D50E
:10094000E06801280AD008B1052813D0286A20F0F1
:1009500001002862286A20F0040002E0286A40F0C2
:1009600001002862E06841F2883B98B1FFF77CFD06
:1009700082460BE0286A40F004002862EEE700BFE0
:10098000FFF772FDA0EB0A0159455AD8286A800783
:10099000F6D50CE0FFF768FD824605E0FFF764FD41
:1009A000A0EB0A0159454CD8286A8007F6D41FB13C
:1009B000E86920F08050E861E06988B36968C1F3B4
:1009C0008101022944D00228C6F8608004D0FFF7D4
:1009D0004BFD044638E034E0FFF746FD074604E0EF
:1009E000FFF742FDC01B02282BD828688001F7D4EE
:1009F000206AB0F5803F05D16868A16820F4003016
:100A000008436860D4E908010843696821F4741157
:100A100008436860C6F86090FFF726FD044606E0CC
:100A200025E000BFFFF720FD001B022809D8286839
:100A30008001F7D51BE000BFFFF716FD001B022861
:100A400002D90320BDE8F88F28688001F4D40EE0B5
:100A50000128F7D06868226A00F48031914204D1FD
:100A6000616A00F47010884201D00120EAE700209A
:100A7000E8E70000001002400000424280044242C9
:100A80000C0000200070004010B5401EB0F1807FC7
:100A900001D3012010BD4FF0E02460610F216017E9
:100AA00000F01EFD0020A06107202061002010BD85
:100AB0007047704770B590F83C20012A23D001247C
:100AC00080F83C40022280F83D2003685A689D6807
:100AD00022F070060A6832435A600C4B02689A4250
:100AE00005D0B2F1804F02D0094B9A4204D1496837
:100AF00025F080031943916080F83D40002180F883
:100B00003C10084670BD022070BD0000002C014062
:100B10000004004010B5040003D094F83D0010B16B
:100B200007E0012010BD002084F83C00204600F0C2
:100B30001FF8022084F83D00211D206800F0BCFB56
:100B4000012084F8460084F83E0084F83F0084F8D1
:100B5000400084F8410084F8420084F8430084F89F
:100B6000440084F8450084F83D00002010BD0000DA
:100B700008B501681448B1F1804F14D0134A91426E
:100B800020D1C16941F00201C161C069002200F0B9
:100B90000200009011461D20FFF7F8FC1D20BDE863
:100BA0000840FFF7E5BCC16941F00101C161C069BE
:100BB000002200F00100009011461C20FFF7E6FC27
:100BC0001C20ECE708BD00000010024000040040BB
:100BD00090F83D10012901D001207047022180F8D2
:100BE0003D100168CA6842F00102CA6000680A4903
:100BF000884205D0B0F1804F02D00849884204D124
:100C0000816801F00701062903D0016841F0010164
:100C10000160002070470000002C014000040040EB
:100C200070B5044690F83C000025012817D0012635
:100C300084F83C60022084F83D002068826822F03D
:100C4000770222F47F4282600868502838D00DDC99
:100C500020284FD005DC90B3102811D14AE00220A3
:100C600070BD302846D040280AD13BE060282FD004
:100C700070280DD0B0F5805F03D0B0F5005F12D0C2
:100C8000012584F83D60002084F83C00284670BDB2
:100C9000CB68D1E90121206800F049FB2068816818
:100CA00041F0770109E0CB68D1E90121206800F02B
:100CB0003EFB2068816841F480418160E1E719E0F2
:100CC000CA684968206800F0E7FB5021206806E008
:100CD000CA684968206800F0F0FB6021206800F0D5
:100CE00030FBCEE7CA684968206800F0D5FB402198
:100CF0002068F4E7226801461046F0E7704770B5B7
:100D00000446006801694FF00005C943890715D4FE
:100D1000C168C943890711D4E91E01610120207708
:100D2000206880698007204602D0FFF7E7FF04E0D3
:100D300000F0BEF8204600F050F9257720680169E0
:100D4000C943490717D4C168C943490713D46FF091
:100D500004010161022020772068806910F4407F3F
:100D6000204602D0FFF7CAFF04E000F0A1F82046B9
:100D700000F033F9257720680169C943090716D4C3
:100D8000C168C943090712D46FF00801016104204A
:100D900020772068C0698007204602D0FFF7AEFFA9
:100DA00004E000F085F8204600F017F92577206868
:100DB0000169C943C90617D4C168C943C90613D418
:100DC0006FF010010161082020772068C06910F4DD
:100DD000407F204602D0FFF791FF04E000F068F862
:100DE000204600F0FAF8257720680169C943C90751
:100DF00008D1C168C943C90704D1891E01612046D1
:100E000000F036F920680169C943090609D4C168B0
:100E1000C943090605D46FF0800101612046FFF740
:100E200047FE20680169C943490609D4C168C9431E
:100E3000490605D46FF040010161204600F019F920
:100E400020680169C94389060BD4C168C943890672
:100E500007D46FF0200101612046BDE87040FFF724
:100E600028BE70BD00B585B00021009101910291AE
:100E7000039100680B49884211D10B48816941F008
:100E8000040181618069694600F0040004904020FB
:100E900000900220019003900448FFF7FBF905B091
:100EA00000BD0000000400400010024000080140A6
:100EB000704770B5044690F83C0000260D460128A6
:100EC0000FD0012084F83C006AB1042A1DD0082A02
:100ED0002FD00C2A3FD00126002084F83C00304659
:100EE00070BD022070BD206800F034FA206881696E
:100EF00041F0080181612068816921F0040181616C
:100F0000206881692A69114311E0206800F04AFADB
:100F10002068816941F4006181612068816921F460
:100F200080618161206881692A6941EA02218161C9
:100F3000D2E7206800F062FA2068C16941F0080138
:100F4000C1612068C16921F00401C1612068C169E3
:100F50002A69114311E0206800F07CFA2068C16919
:100F600041F40061C1612068C16921F48061C161FF
:100F70002068C1692A6941EA0221C161ACE710B564
:100F8000040003D094F83D0010B107E0012010BD2B
:100F9000002084F83C00204600F01EF8022084F86F
:100FA0003D00211D206800F087F9012084F84600EB
:100FB00084F83E0084F83F0084F8400084F8410043
:100FC00084F8420084F8430084F8440084F8450023
:100FD00084F83D00002010BD7047704710B50446EE
:100FE000022249B104290ED0082913D094F84100F7
:100FF000012816D0012010BD94F83E000128F9D137
:1010000084F83E200FE094F83F000128F2D184F8E4
:101010003F2008E094F840000128EBD184F84020FC
:1010200001E084F841200122206800F073F90E49A4
:101030002068884203D1426C42F400424264206836
:10104000884205D0B0F1804F02D00849884204D1CF
:10105000816801F00701062903D0016841F0010110
:101060000160002010BD0000002C01400004004081
:1010700070477047FEE70000F0B585B000241B48BC
:101080000094019402940394816941F010018161FC
:10109000816901F010010491816941F020018161B1
:1010A000816901F020010491816941F004018161AD
:1010B0008069012200F004000D4F55030490294679
:1010C0003846FFF7CCF902200126CDE90240CDE9F0
:1010D000005669463846FFF7DDF8CDE90054694609
:1010E00004480296FFF7D6F805B0F0BD00100240A4
:1010F0000010014000080140094810B5074901608F
:101100000421416040F271218160FFF7B3F90028AA
:1011100003D0BDE81040FFF7BAB810BD0030004062
:101120001000002010B586B00024174800940194E8
:101130000294039404944FF0804105940160472188
:10114000C0E9011440F2E731C0E903148021816154
:10115000FFF7E0FC08B1FFF79AF84FF480500090D9
:1011600069460948FFF75CFD08B1FFF790F8049461
:1011700004A905480594FFF79DFC002801D0FFF75E
:1011800086F806B010BD00001C00002010B58EB01F
:1011900000240794089409940A940B941C2168462F
:1011A0000C94FFF711F820481E4901604721C0E95F
:1011B000011440F2E731C0E9031480218161FFF797
:1011C000A9FC08B1FFF763F84FF48050079007A916
:1011D0001548FFF725FD08B1FFF759F81248FFF74A
:1011E000CEFE08B1FFF753F80B940BA90E480C94F0
:1011F000FFF760FC08B1FFF74AF860200090142068
:101200000190022002900022694604940648FFF7EC
:1012100050FE08B1FFF73BF80348FFF723FE0EB07E
:1012200010BD00000004004064000020FEE7FEE75F
:1012300070477047FFF74CB930B58FB0282168462A
:10124000FEF7C2FF14210AA8FEF7BEFF0920012104
:1012500000904FF48030002404910691CDE9010400
:101260000225CDE907504FF4E01009906846FFF7DA
:101270007BFA08B172B6FEE70F20CDE90A054FF4FC
:101280008060CDE90C4002210AA80E94FFF7B0F966
:10129000002801D072B6FEE70FB030BD70470000E5
:1012A0000148FFF72CBD00001C0000200148FFF79B
:1012B00026BD00006400002070B50268134B144C7A
:1012C0004FF08046984203D0B04201D0A04203D1F3
:1012D00022F070054A682A43984203D0B04201D0F8
:1012E000A04203D122F44074CA6822434C6922F020
:1012F0008002224302608A68C2620A68826298425F
:1013000001D1096901630121416170BD002C0140D7
:101310000004004010B501F01F030121046A994048
:101320008C430462016A9A401143016210BD10B5FA
:10133000846842EA032224F47F440A432243826001
:1013400010BD826822F070020A4342F007018160FA
:101350007047000030B5036A026A22F0010202629F
:101360004268846924F073050C682C4323F002055D
:101370008B682B430A4DA8420BD123F00805CB689C
:1013800022F440722B434D6923F0040315438A690C
:101390002A434260846149684163036230BD0000B2
:1013A000002C014030B5026A036A23F01003036287
:1013B000436884690D6824F4E64444EA05248D6892
:1013C00022F0200242EA05120B4DA8420ED1CD6850
:1013D00022F0800242EA05124D6923F4406343EA99
:1013E00085038D6922F0400243EA850343608461EE
:1013F00049688163026230BD002C014030B5036A48
:10140000026A22F4807202624268C46923F40073A3
:1014100024F073050C682C438D6843EA05230C4DBA
:10142000A8420ED1CD6823F4006343EA05234D6939
:1014300022F4405242EA05128D6923F4806342EAA5
:1014400005124260C4614968C163036230BD000097
:10145000002C014030B5046A026A22F48052026214
:101460004268C3690D6823F4E64343EA05238D68A7
:1014700024F4005444EA0534064DA84204D14D69D1
:1014800022F4804242EA85124260C36149680164E5
:10149000046230BD002C014010B5036A046A24F0D8
:1014A00001040462846924F0F00444EA021423F085
:1014B0000A020A438461026210BD10B5036A046A1D
:1014C00024F010040462846923F0A00324F470441F
:1014D00044EA023243EA01118261016210BDFEE773
:1014E0000907090E002804DB00F1E02080F8001451
:1014F000704700F00F0000F1E02080F8141D7047E5
:10150000FEF7EEFFFFF798FEFFF7B6FDFFF70AFEC6
:10151000FFF73CFEFFF7F0FD0F48FFF759FB0F48C0
:10152000FFF756FB00210D48FFF758FD0B494FF41C
:10153000FA70096848630A4D0A4E6C142146284621
:10154000FEF788FF28B1012221463046FEF787FFCB
:10155000F4E70022F8E700001C00002064000020EF
:1015600000080140001001400102020304050607C3
:1015700008090A0B0C0D0E0F1010000000000000EF
:10158000000001020304060708090000AC1500086A
:10159000000000201000000028010008BC15000811
:1015A00010000020000700004401000801000000B6
:0C15B00010000000000000000024F40007
:04000005080000ED02
:00000001FF
