:020000040800F2
:10000000E0080020A9010008B31E0008111E000826
:10001000B11E00083D100008332000080000000059
:10002000000000000000000000000000B71E0008F3
:100030003F10000800000000B51E0008B91E0008AF
:10004000C3010008C3010008C3010008C301000880
:10005000C3010008C3010008C3010008C301000870
:10006000C3010008C3010008C3010008C301000860
:10007000C3010008C3010008C3010008C301000850
:10008000C3010008C3010008C3010008C301000840
:10009000C3010008C3010008C3010008C301000830
:1000A000C3010008291F0008C30100081D1F000824
:1000B000C3010008C301000800000000C3010008DC
:1000C000C30100080000000000000000C301000898
:1000D00000000000C3010008C30100080000000088
:1000E000C3010008C3010008C301000800F002F8C2
:1000F00000F04AF80AA090E8000C82448344AAF178
:100100000107DA4501D100F03FF8AFF2090EBAE875
:100110000F0013F0010F18BFFB1A43F0010318473B
:100120000022000020220000103A24BF78C878C1C5
:10013000FAD8520724BF30C830C144BF04680C60ED
:10014000704700000023002400250026103A28BF35
:1001500078C1FBD8520728BF30C148BF0B60704739
:10016000642900F0AB80732900F0E0810020704723
:100170001FB59DE8030000F033FD00F03BFA1FBD02
:1001800010B500F0A0FA10BD00F003FB1146FFF718
:10019000EFFF02F093F800F0F3FC03B4FFF7F0FF79
:1001A00003BC00F0AFFE0000094880470948004743
:1001B000FEE7FEE7FEE7FEE7FEE7FEE7FEE7FEE717
:1001C000FEE7FEE704480549054A064B7047000074
:1001D0001B1F0008ED000008E0020020E0080020DE
:1001E000E0040020E00400200FB4044910B503AA85
:1001F000029800F09FF910BC5DF814FBD4010020B8
:100200002DE9F0410E460446002020622046E168B8
:10021000884730B3252805D0D4E901219047206ACA
:10022000401CF2E7E168204600278847050018D007
:10023000A5F14100192802D820354FF40067324655
:10024000294620462760FFF78BFF40B1012804D0E4
:10025000F61D26F007060836D8E7361DD6E72846ED
:10026000DAE7206ABDE8F08170B50C460546012A40
:1002700005D02878800600D5EA69002302E0012332
:1002800005E05B1C934202D2E05C0028F9D1A8692A
:10029000E618C01AA861286A184428622846AFF3F5
:1002A000008004E0D5E9012114F8010B9047B44225
:1002B000F8D32846AFF3008070BD00002DE9F0416F
:1002C0000646002410687529314616A510D0AFF3F4
:1002D0000080002802DA404213A507E031688A074F
:1002E00001D512A502E0490704D511A5012401E0BA
:1002F000AFF3008000210A2206F1240709E0B0FBD9
:10030000F2FCB0FBF2F302FB1C00303078541846CC
:10031000491C0028F3D123462A463046BDE8F04167
:1003200000F099B8000000002D0000002B00000034
:1003300020000000032A40F2308010F0030C00F08F
:10034000158011F8013BBCF1020F624498BF11F80F
:1003500001CB00F8013B38BF11F8013BA2F10402C8
:1003600098BF00F801CB38BF00F8013B11F0030340
:1003700000F0F280083AC0F0088051F8043B083AD7
:1003800051F804CBA0E80810F5E7121D5CBF51F846
:10039000043B40F8043BAFF30080D20724BF11F8C0
:1003A000013B11F801CB48BF11F8012B24BF00F825
:1003B000013B00F801CB48BF00F8012B70474FF01C
:1003C00000020429C0F0128010F0030C00F01B8022
:1003D000CCF1040CBCF1020F18BF00F8012BA8BF30
:1003E00020F8022BA1EB0C0100F00DB85FEAC17CF4
:1003F00024BF00F8012B00F8012B48BF00F8012BA7
:1004000070474FF0000200B51346944696462039D7
:1004100022BFA0E80C50A0E80C50B1F12001BFF4BD
:10042000F7AF090728BFA0E80C5048BF0CC05DF823
:1004300004EB890028BF40F8042B08BF704748BF71
:1004400020F8022B11F0804F18BF00F8012B7047E5
:100450007047704770472DE9F0470D469946924620
:10046000044600F124080168880604D5E06921F0FB
:100470001001216000E00120A84201DD471B00E0DF
:100480000027A1697A1902EB0900081AA0612078F7
:10049000C00602D42046AFF30080002608E0D4E96D
:1004A00001211AF806009047206A401C761C206241
:1004B0004E45F4DB2078C0060AD52046AFF3008015
:1004C00006E0D4E9012130209047206A401C2062D8
:1004D000381EA7F10107F4DC07E0D4E9012118F880
:1004E00005009047206A401C2062281EA5F10105E6
:1004F000F3DC2046AFF300802078000602D502200E
:10050000BDE8F0870120FBE710B5436913B1AFF3F5
:10051000008001E0FFF7A8FE012010BD127800F175
:1005200024010A7000224A700122EDE711684FF0A1
:10053000FF32E9E7074B70B50D467B4400F043F806
:100540000446284600F052F810B14FF0FF3070BD5D
:10055000204670BD2B1B000010B5203AC0F00B8068
:10056000B1E81850203AA0E81850B1E81850A0E8B7
:100570001850BFF4F5AF5FEA027C24BFB1E8185011
:10058000A0E8185044BF18C918C0BDE810405FEA81
:10059000827C24BF51F8043B40F8043B08BF7047FD
:1005A000D20728BF31F8023B48BF11F8012B28BF02
:1005B00020F8023B48BF00F8012B704701694A1C34
:1005C00002610878704700B58FB0CDE90131002194
:1005D000059105497944CDE9031011466846FFF7B6
:1005E0000FFE0FB000BD0000E5FFFFFF007B00F035
:1005F0008000704710B542485421FFF702FF414880
:100600005421FFF7FEFE40485421FFF7FAFE3F4910
:100610003B483C4A3F4B08603D490A603A491960F3
:10062000531C0365481C1065012008653B48344A8B
:1006300039A1784400F008FA20B9384878440A38DB
:1006400000F0A4FA37482F4A35A1784400F0FCF9AD
:1006500020B9344878440A3800F098FA32482A4AD7
:100660002FA1784400F0F0F920B92F4878440A38D7
:1006700000F08CFA40232248DC000021224600F0E2
:10068000BFF920B125487844543800F07FFA1D485E
:1006900022464023002100F0B3F920B121487844DC
:1006A000543800F073FA184822461023002100F055
:1006B000A7F9002806D01C487844BDE810405638F9
:1006C00000F064BA10BD104870B5006D20F0010450
:1006D0000B4800F02FFA0B4800F02CFA0A4800F003
:1006E00029FA09E0206D20F00105204600F022FAE9
:1006F000204600F073F82C46002CF3D170BD0000AA
:1007000080010020D4010020280200201C000020CD
:10071000200000202400002072000000DC1C0000EB
:1007200077000000C81C0000B41C00000EB5CDE925
:10073000000100F0C7FB029069460120ABBE0EBD70
:1007400008B5694600900220ABBE08BD1FB58DE814
:10075000070069460520ABBE04B010BD1FB58DE88B
:100760000F0069460620ABBEF6E708B56946009063
:100770000920ABBE08BD1CB5CDE9000169460A20C1
:10078000ABBE1CBD704708B5694600900C20ABBEDF
:1007900008BD754600F002FAAE46050069465346AC
:1007A00020F00700854618B020B5FFF70BFDBDE827
:1007B00020404FF000064FF000074FF000084FF0C8
:1007C000000B21F00701AC46ACE8C009ACE8C00959
:1007D000ACE8C009ACE8C0098D46704770B5044666
:1007E000051F00F0E1F90068002C14BF446870BDDB
:1007F000002C18BFAC423CBF20466468F8D30168A7
:100800000A18AA4218BF456003D12A680546114458
:10081000016028684119A1421CBF6C6070BD61680D
:10082000696021680844286070BD2DE9F0470546DD
:100830000C46C86820F4201040F48000C860800690
:1008400002D5084600F0FDFAE06841F282014FF05F
:10085000FF390140022903D0204600F09BFAB5E0A1
:1008600000F42041B1F5004F0FD1C00306D56168F7
:10087000E06A884200D80846606006E02069E062CD
:1008800060606069FFF77FFFA061A0680022EEB2A0
:1008900000280DDAE1688B050AD4C043A06041F45A
:1008A00090302260E0606068411C61600670A5E0E5
:1008B000E0689046226040F40050E060206968BB28
:1008C0006069FFF752FF012704F12405A0B1A08958
:1008D00010F4407F08D0E06900F0B1F9206118B150
:1008E000E06840F4006016E0E7612561E06820F40C
:1008F000407040F480600EE0E06900F0A0F900284C
:100900002061F1D0E06840F4006010F4407FE060C6
:1009100002D140F48070E06020696060E068256981
:100920006FF0010AC1051FD56168E06A884200D8EE
:100930000846411B04D02246284600F035FAF0BB99
:10094000E068010203D5E562C4E9015854E0691C7E
:10095000E1626160E16940F48030491EC4E902103F
:1009600030462E70BDE8F087010202D500F48032D7
:100970000AE06068411C61600670E0680A2E40F47D
:100980008030E06006D00022E16A6068814203D9CD
:100990000B4602E00122F7E70346A7895B1B7F05B0
:1009A00003D4E7699F4200DDE2B1814200D80146ED
:1009B000E5620F1AC4E90158002B09DD00E005E0EB
:1009C00022461946284600F0EFF908B14846C9E723
:1009D00047B1A069E5626560C01BA061E06840F0B6
:1009E0001000E060E068000208D56168A069E56277
:1009F000491B08446560A0615046B3E73046B1E743
:100A000070B5C468A50713D0650211D4B2F5807F14
:100A100009D0B2F5007F06D0B2F5806F08D101236E
:100A200000F1240106E05D1E6FF07F46B54201D360
:100A3000012070BD0161C361416024F47061114304
:100A4000C160002070BD00002DE9F0410C46074652
:100A50001646104600F06EF82078611C61280AD016
:100A6000722802D077283CD102E00125002405E05D
:100A70000225042402E0082448F2020511F8010BC3
:100A80002B2806D0622809D011F8010C74280AD04E
:100A90000BE045F0030544F00204EFE745F00405E0
:100AA00044F00104EAE744F0100438462146FFF719
:100AB0003DFE411C15D00021316171604FF4007181
:100AC000F560F1617061200704D5304602220021F3
:100AD00000F0E4F8306D40F0010030653046BDE8CC
:100AE000F0810020FBE72DE9F0410D460646104C51
:100AF000206DC10704D0410804D020F00104F7E7BD
:100B000022460EE0542000F09AF807000ED0206D27
:100B100047F001010843542120653846FFF771FC76
:100B20003A4629463046BDE8F0418DE70020D6E739
:100B3000800100202DE9F04704464FF000094FF0F6
:100B4000FF37C568D4E90486A80707D0204600F01F
:100B500055F93046FFF7F4FD002802DA3846BDE8C3
:100B6000F087280502D54046FFF738FE4C21204685
:100B7000FFF747FC206D20F0010020654846EEE7B6
:100B80000446AFF300802046FFF707FB10B500F0E6
:100B90007FF9BDE8104000F075B9000000487047CB
:100BA0007C0200207047000000487047840200204B
:100BB000704770477047704738B504460A460020B2
:100BC0006946AFF30080002808BF38BD024600998F
:100BD000204600F0A4F9012038BD012000F0F3B94F
:100BE000F8B5AFF30080054600200C46102000BF8A
:100BF0000646A819A0420DD9324669460020AFF337
:100C00000080070008BF00F0DEF90098A04218BF7E
:100C10000546C419FFF7C8FF05600746F01D20F020
:100C200007004619284600F073F9B44208BFF8BD22
:100C3000A21B31463868BDE8F84000F070B970B5C5
:100C40000646FFF7B1FF056806F10B0020F0070428
:100C5000B4429CBF002070BD2B466A68BAB11068D0
:100C6000A04210D304F1080188423CBF506858608C
:100C700007D35168101941601168091B0160586061
:100C80001460101D70BD13465268002AE7D121463A
:100C90002846FFF791FF0028DED170BD2DE9F04115
:100CA000044616460D464769007B80072ED038461D
:100CB000FFF75BFD50BB3EB3012E02D0022E25D1C3
:100CC00004E0204600F045F905441DE03846FFF7F2
:100CD0005AFDE168002841F01001E16005DA204684
:100CE00000F058F80120BDE8F081C9030BD5626817
:100CF000E16A914200D81146A26911442269891A19
:100D0000814200DD08460544002D01DA0220EAE7B1
:100D1000E16A6068E268814206D29103E06203D52D
:100D200022F4003141F01002A6690027AE4213DC24
:100D3000E16A814201D90B4600E0034603EB060C51
:100D40002369ACEB030CAC4506DD814201D98C462E
:100D500000E084469C4505D1A760276042F0200052
:100D6000A5620DE0AD1BE669AE1B8142A66000D90D
:100D70000846C01A281A20605819606022F0200026
:100D800003490840E060002084F84870ABE70000A9
:100D9000BFCFD7FFC16821F4001141F08001C160CD
:100DA00000218160016070472DE9F04781461446BB
:100DB0000E464FF0FF383248D5685769054209D0D2
:100DC0003846A169FFF7D7FC002811DB2C48C04347
:100DD0000540E5602B46324649463846FFF7B6FCEB
:100DE000A16920F00042B21A11440028A16103D089
:100DF0002046FFF7CFFF4046BDE8F08770B50446B8
:100E00000569C06A6168884200D80846E16821F433
:100E10002011E160C90312D5A84208D02246411B27
:100E20002846FFF7C1FF10B14FF0FF3070BD002022
:100E3000E562C4E90150E06820F48030E060002001
:100E400070BD10B50446C06820F02000E060A16AC3
:100E5000A06988420DD02046FFF7D0FFE06820F45B
:100E6000405040F01000E060A06AA0612069E0629C
:100E7000606044F24001E0688843E06010BD00001B
:100E800010000200002801D000F03CB870470000BC
:100E900010B5014602A000F07DF8012010BD000051
:100EA00053494752545245443A2052656469726529
:100EB00063743A2063616E2774206F70656E3A2008
:100EC0000000000010B5431C02E010F8011B71B1D6
:100ED0008107FAD14FF0013202C88C1A8C4314EA10
:100EE000C211F9D0C01A0A0603D0C01E10BDC01A24
:100EF00010BD0A0401D0801E10BD0902FCD0401EA6
:100F000010BD000001491820ABBEFEE7260002001C
:100F100000210160C0E901107047102070470346AE
:100F200040688C46002818BF88423CBF0346406892
:100F3000F8D318681844884207D00CF1030020F059
:100F40000700001D411A521A0146081D0A60FFF7EA
:100F500045BC10B50146C268900703D0900607D57E
:100F6000886A0AE000F03EF801210160881E10BD89
:100F70008B69486818440B69C01A91F848301BB156
:100F800091F84910401A10BD1103FCD50028FADD74
:100F9000401E10BD70B505460C460A2000E06D1CD1
:100FA00000F018F835B128780028F8D102E0641C68
:100FB00000F010F814B120780028F8D1BDE8704096
:100FC0000A2000F007B810B500F010F8BDE8104096
:100FD000FFF758BF08B569468DF800000320ABBE87
:100FE00008BD0000004870477C02002010B50128B1
:100FF00005D0002103A0FFF7CDFF012010BD09A1FE
:10100000F8E7000053494752544D454D3A204F757B
:1010100074206F662068656170206D656D6F7279F0
:10102000000000003A2048656170206D656D6F72A8
:101030007920636F7272757074656400FEE77047A3
:1010400072B6FEE72DE9F84FDFF89C910024A9F174
:10105000040B23460F2709F1040AABF1040EBBE091
:101060000125A5402A40AA4276D1DFF880C14E680A
:10107000A6EB0C0866452BD00DDC032E34D005DC26
:1010800036B3012E19D0022E2FD11BE0112E16D00F
:10109000122E2AD119E0B8F5881F19D006DCB8F550
:1010A000803F15D0B8F5801F1FD111E0B8F5001FA3
:1010B0000ED0B8F5041F18D10AE0CB6815E0CB6854
:1010C0001B1D12E0CB6808330FE0CB680C330CE03B
:1010D0008B682BB1012B4FF0080303D0456104E06E
:1010E000042302E0056100E00023FF2A01D8064640
:1010F00001E000F104064FEA840501D9A5F12005BD
:10110000D6F8008007FA05FC28EA0C0803FA05F572
:1011100048EA0508C6F800804D68ED005BD5344DFF
:10112000AE6946F00106AE61AD6924F0030605F034
:10113000010500952F4D06EB050CDCF80850A607BD
:10114000360F07FA06F825EA0805DFF8AC804045B7
:1011500003D14FF0000810E03DE0DFF8A0804045EB
:1011600002D14FF0010808E0DFF89480404502D139
:101170004FF0020801E04FF0030808FA06F848EAC9
:101180000508CCF808804D68D9F80060ED024D469E
:1011900001D5164300E096432E604D68DAF80060F2
:1011A000AD02554601D5164300E096432E604D68CA
:1011B000DBF80060AD035D4601D5164300E09643C1
:1011C0002E604D68DEF80060ED03754601D51643CC
:1011D00000E096432E60641C0A6832FA04F57FF43E
:1011E0003FAFBDE8F88F0000080401400000111077
:1011F000001002400000014000080140000C0140C6
:101200000010014001488068704700000C00002079
:101210000248816802781144816070470C00002008
:10122000074810B5016841F010010160032000F08B
:101230006DF80F2000F006F800F024F8002010BD33
:101240000020024070B50D4D04464FF47A712878A5
:10125000B1FBF0F00A490968B1FBF0F000F0B4FA14
:1012600048B9102C07D200222146501E00F02EF85B
:1012700000206C6070BD012070BD00000C000020DB
:1012800018000020094808B5816941F00101816119
:10129000816901F001010091C16941F08051C16192
:1012A000C06900F08050009008BD000000100240AE
:1012B000002809DB00F01F02012191404009800055
:1012C00000F1E020C0F8001170470000F0B40E4BB0
:1012D0001B680C46C3F30223C3F10705042D00D994
:1012E0000425191D072901D2002300E0DB1E012679
:1012F00006FA05F1491E214099409E40761E16408F
:101300003143F0BC00F096BE0CED00E0064900F061
:10131000070208684FF6FF03184040EA0220034A1C
:1013200010430860704700000CED00E00000FA0573
:101330002DE9F0470F46050061D0434E306800F0BC
:101340000700B84209D2306820F007003843306007
:10135000306800F00700B84251D128683B4C810743
:1013600012D5400703D5606840F4E06060602878DB
:10137000000703D5606840F4605060606068A96849
:1013800020F0F000084360602878C00728D0686823
:10139000012810D02168022810D0890700292EDAF0
:1013A000616821F0030101436160FFF72BFF804674
:1013B00041F288390DE021688903EFE78901EDE703
:1013C000FFF720FFA0EB0801494502D90320BDE843
:1013D000F0876068696800F00C00B0EB810FEFD116
:1013E000306800F00700B8420BD9306820F00700E1
:1013F00038433060306800F00700B84201D0012067
:10140000E5E72878400705D56068E96820F4E060E2
:10141000084360602878000706D56068296920F4D1
:10142000605040EAC100606000F018F86168084A46
:10143000C1F30311515CC8400649086006480068C2
:10144000FFF700FF0020C2E700200240001002402A
:101450000223000818000020100000200E4A5168E6
:101460000E4801F00C03042B11D0082B0FD10C48AF
:10147000C1F38343C903C05C0AD55168084AC1F36C
:101480004041921E515C054A5043B0FBF1F0704759
:1014900004494843704700000010024000127A00DF
:1014A000F222000800093D002DE9F84F040070D039
:1014B0002078C04DC00749D06868C0F3810001287A
:1014C00007D06868C0F38100022809D16868C003AA
:1014D00006D52868800339D560680028E7D035E054
:1014E0006068B0F5803F0BD010B1B0F5A02F11D0DF
:1014F000286820F480302860286820F4802002E0EA
:10150000286840F480302860606890B1FFF77AFE68
:1015100006460AE0286840F480202860F0E700BF13
:10152000FFF770FE801B642873D828688003F7D506
:101530000CE0FFF767FE064605E000BFFFF762FE1E
:10154000801B6428F0D828688003F7D420789A4E4E
:1015500080074FF001094FF0000839D5686810F096
:101560000C0F07D06868C0F38100022809D16868B1
:10157000C00306D42868800714D52069012808D143
:1015800010E02069B0B1C6F80090FFF73BFE0746B7
:1015900005E00AE1FFF736FEC01B0228C4D8286820
:1015A0008007F7D52868616920F0F80040EAC1009B
:1015B00028600DE0C6F80080FFF724FE074604E02F
:1015C000FFF720FEC01B022823D828688007F7D425
:1015D000207800072CD57948A169D9B1C0F80090CE
:1015E000FFF710FE074604E0FFF70CFEC01B0228C1
:1015F0000FD8686A8007F7D571484FF4FA51006830
:10160000B0FBF1F0009000BF0098411E0091FAD2AB
:101610000EE080E0C0F80080FFF7F4FD074604E02C
:10162000FFF7F0FDC01B022875D8686A8007F7D461
:101630002078400760D5E8690027C00008D4E86931
:1016400040F08050E861E869012700F08050009088
:101650005C480168C90513D40168834641F4807170
:101660000160FFF7CFFD824606E000BFFFF7CAFD2D
:10167000A0EB0A0064284ED8DBF80000C005F5D5C1
:10168000E06801280AD008B1052813D0286A20F0A4
:1016900001002862286A20F0040002E0286A40F075
:1016A00001002862E06841F2883B98B1FFF7AAFD8B
:1016B00082460BE0286A40F004002862EEE700BF93
:1016C000FFF7A0FDA0EB0A0159455AD8286A800708
:1016D000F6D50CE0FFF796FD824605E0FFF792FD98
:1016E000A0EB0A0159454CD8286A8007F6D41FB1EF
:1016F000E86920F08050E861E06988B36968C1F367
:101700008101022944D00228C6F8608004D0FFF786
:1017100079FD044638E034E0FFF774FD074604E045
:10172000FFF770FDC01B02282BD828688001F7D472
:10173000206AB0F5803F05D16868A16820F40030C8
:1017400008436860D4E908010843696821F474110A
:1017500008436860C6F86090FFF754FD044606E051
:1017600025E000BFFFF74EFD001B022809D82868BE
:101770008001F7D51BE000BFFFF744FD001B0228E6
:1017800002D90320BDE8F88F28688001F4D40EE068
:101790000128F7D06868226A00F48031914204D1B0
:1017A000616A00F47010884201D00120EAE700204D
:1017B000E8E700000010024000004242800442427C
:1017C000180000200070004010B5401EB0F1807F6E
:1017D00001D3012010BD4FF0E02460610F2160179C
:1017E00000F028FC0020A06107202061002010BD2F
:1017F0007047704770B590F83C20012A23D001242F
:1018000080F83C40022280F83D2003685A689D68B9
:1018100022F070060A6832435A600C4B02689A4202
:1018200005D0B2F1804F02D0094B9A4204D14968E9
:1018300025F080031943916080F83D40002180F835
:101840003C10084670BD022070BD0000002C014015
:101850000004004090F83D10012901D0012070479C
:10186000022180F83D100168CA6842F00102CA6096
:1018700000680A49884205D0B0F1804F02D008497B
:10188000884204D1816801F00701062903D001686C
:1018900041F001010160002070470000002C014070
:1018A000000400402DE9F04100682649884247D1F4
:1018B000254C264D264F60780026C0B101283FD127
:1018C0000021284600F07EFA80B2208129680A6A49
:1018D00022F00A020A6229680A6A42F002020A62D7
:1018E0006670E178F1B1BDE8F04100F0F3BC002191
:1018F000164800F067FA80B2E08029680A6A22F090
:101900000A020A6229680A6A0A6201216170E178A2
:101910000029E8D1217840F27122514300EB0110F7
:10192000218906E0217840F27122514300EB011039
:10193000E188411AA07827F810102670401CA0708A
:10194000BDE8F081002C014000000020380100209B
:10195000280000202DE9F041054690F83C000026C3
:101960000C46012810D0012085F83C0072B1042AF1
:101970001CD0082A2CD00C2A50D00126002085F833
:101980003C003046BDE8F0810220FBE7D4E90012BC
:10199000E368286800F00AFB2868816921F00C01DF
:1019A000816128688169A26811430FE0D4E90012BF
:1019B000E368286800F022FB2868816921F440610F
:1019C000816128688169A26841EA02218161D5E7C5
:1019D0002868D4E9002C277B036A016A21F480710E
:1019E0000162C16923F4007321F0030141EA0C0193
:1019F00021F0F00C39074FF400774CEA116107EA47
:101A000002221A43C16102622868C16921F00C01F7
:101A1000C1612868C169A26811432BE02868D4E934
:101A20000021E768036AD0F820C02CF4805CC0F87D
:101A300020C0D0F81CC023F400532CF4407C4CEAA6
:101A4000012121F4704C4FF6FF7101EA07314FF488
:101A5000005741EA0C0107EA02321A43C1610262EF
:101A60002868C16921F44061C1612868C169A26820
:101A700041EA0221C16181E710B5040003D094F866
:101A80003D0010B107E0012010BD002084F83C00AB
:101A9000204600F01FF8022084F83D00211D206838
:101AA00000F048FA012084F8460084F83E0084F8EB
:101AB0003F0084F8400084F8410084F8420084F834
:101AC000430084F8440084F8450084F83D00002079
:101AD00010BD000000B585B0002100910191029178
:101AE000039100681649884227D11648816941F45C
:101AF00000618161816901F400610491816941F0B3
:101B0000040181618069694600F0040004904FF48B
:101B1000807000900C48FFF795FA002211461920BA
:101B2000FFF7D4FB1920FFF7C3FB002211461B204F
:101B3000FFF7CCFB1B20FFF7BBFB05B000BD00008F
:101B4000002C0140001002400008014030B504465E
:101B5000002551B104290DD0082910D094F8410076
:101B600094F84520012811D10EE094F83E0094F835
:101B70004220F7E794F83F0094F84320F2E794F806
:101B8000400094F84420EDE7012A01D0012030BD47
:101B9000022059B1042912D0082919D084F8410033
:101BA00084F845000C2935D0012531E084F83E0049
:101BB00084F842002068C26842F0020210E084F813
:101BC0003F0084F843002068C26842F0040207E046
:101BD00084F8400084F844002068C26842F008029B
:101BE000C2600122206800F0D3F90D4920688842C4
:101BF00005D0B0F1804F02D00A49884204D18168F3
:101C000001F00701062903D0016841F001010160DC
:101C1000284630BD2068C26842F01002E0E70000AC
:101C2000002C01400004004070B5044600680169C2
:101C30004FF00005C943890715D4C168C943890716
:101C400011D4E91E01610120207720688069800796
:101C5000204602D0FFF726FE04E000F098F8204668
:101C600000F096F8257720680169C943490717D421
:101C7000C168C943490713D46FF004010161022010
:101C800020772068806910F4407F204602D0FFF75B
:101C900009FE04E000F07BF8204600F079F8257793
:101CA00020680169C943090716D4C168C9430907F7
:101CB00012D46FF008010161042020772068C06908
:101CC0008007204602D0FFF7EDFD04E000F05FF84A
:101CD000204600F05DF8257720680169C943C906F0
:101CE00017D4C168C943C90613D46FF0100101614C
:101CF000082020772068C06910F4407F204602D079
:101D0000FFF7D0FD04E000F042F8204600F040F874
:101D1000257720680169C943C90708D1C168C9434B
:101D2000C90704D1891E0161204600F033F82068FC
:101D30000169C943090609D4C168C943090605D424
:101D40006FF0800101612046FFF752FD20680169B4
:101D5000C943490609D4C168C943490605D46FF08F
:101D600040010161204600F042F820680169C94342
:101D700089060BD4C168C943890607D46FF02001D6
:101D800001612046BDE87040FFF733BD70BD70476C
:101D9000704700000068094988420ED10848C178A0
:101DA00000290AD10178491CC9B20170032904D164
:101DB000002101700121C17001717047002C0140A8
:101DC000000000200246002041B1042909D0082962
:101DD0000AD00C2901D11068006C70471068406B64
:101DE00070471068806B70471068C06B7047704711
:101DF00000F048F9054C002520790028FCD000F0BF
:101E00004DF900F0B5F92571F6E70000000000205B
:101E1000FEE70000094808B5816941F020018161B1
:101E2000816901F020010091816941F00401816123
:101E3000806900F00400009008BD0000001002401E
:101E400010B586B0002419480594049400940194B8
:101E500002941549039401604821C0E9011442F23B
:101E60000F71C0E9031444618461FFF705FE08B1F6
:101E7000FFF7E6F8049404A90C480594FFF7BAFCB0
:101E800008B1FFF7DDF8022000900120CDE9010440
:101E90000022694605480394FFF75CFD002801D045
:101EA000FFF7CEF806B010BD002C0140380100202D
:101EB000FEE7FEE770477047FFF7AAB930B58FB06D
:101EC00028216846FEF79DFA14210AA8FEF799FA20
:101ED00001210804CDE90010002402940225049198
:101EE000CDE907504FF4E01009906846FFF7DCFA9F
:101EF00008B172B6FEE70F20CDE90A054FF4806005
:101F0000CDE90C4002210AA80E94FFF711FA00282F
:101F100001D072B6FEE70FB030BD70470148FFF741
:101F200083BE0000380100200148FFF77DBE00009D
:101F30003801002070B50268134B144C4FF08046F6
:101F4000984203D0B04201D0A04203D122F07005E4
:101F50004A682A43984203D0B04201D0A04203D13C
:101F600022F44074CA6822434C6922F08002224362
:101F700002608A68C2620A688262984201D1096975
:101F800001630121416170BD002C0140000400404B
:101F900010B501F01F030121046A99408C430462CB
:101FA000016A9A401143016210BD000070B5056AD4
:101FB000046A24F00104046284690E4EB04205D024
:101FC000B0F1804F02D00C4EB04203D124F0030494
:101FD000144301E044F001041A0724F0F00444EA39
:101FE000126225F00A0301F00A01194382610162BD
:101FF00070BD0000002C01400004004030B5046AB0
:10200000056A25F010050562856925F4407545EAE5
:10201000022222F470454FF6FF7202EA033224F0E6
:10202000A0032A43A02404EA01111943826101623A
:1020300030BDFEE70907090E002804DB00F1E020AF
:1020400080F80014704700F00F0000F1E02080F8E5
:10205000141D7047401A00D54042B0F5967F01DA52
:1020600001207047002070478A68002A01DCFEF7D3
:10207000DCBB521E8A604A68C0B2531C4B601070B1
:102080007047000010B50448FFF7E4FBBDE81040BE
:1020900000210148FFF75ABD3801002070B53349CF
:1020A000842201F18400FEF745F984212F48FEF7D0
:1020B00086F90020401CC0B24228FBD92B4A42F2CC
:1020C0002833843219461088FFF7C4FF98B350882C
:1020D00041F29411FFF7BEFF68B30020022440F2E2
:1020E0005621A2F884008B0732F81450A5F205158A
:1020F0008D4238D8641CE4B232F81450A5F265560B
:102100008E4205D8D2F8885023FA00F6354308E00D
:10211000A5F205158D4226D8D2F8885023FA00F68C
:10212000B543401C641CE4B2C0B2C2F88850422CD3
:10213000DAD3012070BDFFE710881946FFF78AFF48
:1021400088B1508840F6CA01FFF784FF58B19088E3
:102150004FF40C71FFF77EFF28B132F8840F401C5A
:1021600010800220E6E70020E4E7000028000020BD
:10217000A8B12E49022814D0B1F88800C0F3072076
:10218000682842D018DC38284BD00EDC022830D02A
:10219000102840D018283CD022281FD127E024A0A6
:1021A0001DE0B1F8841025A03DE04A2835D05A281A
:1021B00035D0622812D116E0B02828D008DC90284B
:1021C0001FD098281FD0A2280BD0A82806D116E02F
:1021D000C22810D0E02810D0E22806D01AA0FEF7BE
:1021E00003B81FA11EE01FA11CE01FA11AE01FA140
:1021F00018E01FA116E01FA114E01FA112E01FA10B
:1022000010E01FA10EE01FA10CE01FA10AE01FA11A
:1022100008E01FA106E01FA104E01FA102E01FA12A
:1022200000E01FA11FA0FDF7DFBF0000AC000020F1
:102230006572726F72200D0A000000007265706591
:1022400074282564290D0A006465746563746564E7
:1022500020756E6B6E6F7720636F6465200D0A00CA
:1022600031000000320000003300000034000000A4
:102270003500000036000000370000003800000084
:1022800039000000300000002A0000002300000098
:10229000A1FC0000A1FB0000A1FD0000A1FA0000CC
:1022A0004F4B0000646574656374656420636F64FC
:1022B00065205B25735D200D0A000000FEF7B0FF6E
:1022C000FFF7FCFDFFF7A6FDFFF7BAFDFFF790FD56
:1022D000FCE70000044800210171C17001708170A9
:1022E00084210248FEF76BB800000020280000207F
:1022F000010202030405060708090A0B0C0D0E0F64
:102300001010000000000000000001020304060796
:1023100008093A7474003A7474003A747400000046
:1023200040230008000000202800000028010008C9
:102330006823000828000020B808000044010008B5
:10234000000000010000000000000000010000008B
:1023500010000000000000000024F4000000000055
:08236000000000000000000075
:04000005080000ED02
:00000001FF
