:020000040800F2
:10000000E806002089010008130F0008FD0D000814
:10001000110F00088B020008DF100008000000002C
:10002000000000000000000000000000A90F000810
:100030008D02000800000000A70F0008AB0F0008A9
:10004000A3010008A3010008A3010008A301000800
:10005000A3010008A3010008A3010008A3010008F0
:10006000A3010008A3010008A3010008A3010008E0
:10007000A3010008A3010008A3010008A3010008D0
:10008000A3010008A3010008A3010008A3010008C0
:10009000A3010008A3010008A3010008A3010008B0
:1000A000A3010008A3010008A3010008A3010008A0
:1000B0000D100008A301000800000000A3010008C3
:1000C000A30100080000000000000000A3010008D8
:1000D00000000000A3010008A301000800000000C8
:1000E000A3010008A3010008A301000800F002F822
:1000F00000F03AF80AA090E8000C82448344AAF188
:100100000107DA4501D100F02FF8AFF2090EBAE885
:100110000F0013F0010F18BFFB1A43F0010318473B
:100120002810000048100000103A24BF78C878C199
:10013000FAD8520724BF30C830C144BF04680C60ED
:10014000704700000023002400250026103A28BF35
:1001500078C1FBD8520728BF30C148BF0B60704739
:100160001FB51FBD10B510BD00F058F81146FFF7C0
:10017000F7FF00F0C5FF00F076F803B4FFF7F2FFD9
:1001800003BC00F07BF8000009488047094800479D
:10019000FEE7FEE7FEE7FEE7FEE7FEE7FEE7FEE737
:1001A000FEE7FEE704480549054A064B7047000094
:1001B0000B100008ED000008E8000020E806002011
:1001C000E8020020E80200204FF0000200B51346CC
:1001D00094469646203922BFA0E80C50A0E80C5067
:1001E000B1F12001BFF4F7AF090728BFA0E80C5018
:1001F00048BF0CC05DF804EB890028BF40F8042B11
:1002000008BF704748BF20F8022B11F0804F18BF7D
:1002100000F8012B7047704770477047754600F033
:1002200029F8AE4605006946534620F0070085468A
:1002300018B020B5FFF7B6FFBDE820404FF000062C
:100240004FF000074FF000084FF0000B21F00701BE
:10025000AC46ACE8C009ACE8C009ACE8C009ACE801
:10026000C0098D4670470446AFF300802046FFF773
:1002700084FF0000004870478400002001491820D6
:10028000ABBEFEE7260002007047FEE7704772B67D
:10029000FEE700002DE9F84FDFF89C910024A9F15A
:1002A000040B23460F2709F1040AABF1040EBBE04F
:1002B0000125A5402A40AA4276D1DFF880C14E68C8
:1002C000A6EB0C0866452BD00DDC032E34D005DCE4
:1002D00036B3012E19D0022E2FD11BE0112E16D0CD
:1002E000122E2AD119E0B8F5881F19D006DCB8F50E
:1002F000803F15D0B8F5801F1FD111E0B8F5001F61
:100300000ED0B8F5041F18D10AE0CB6815E0CB6811
:100310001B1D12E0CB6808330FE0CB680C330CE0F8
:100320008B682BB1012B4FF0080303D0456104E02B
:10033000042302E0056100E00023FF2A01D80646FD
:1003400001E000F104064FEA840501D9A5F120057A
:10035000D6F8008007FA05FC28EA0C0803FA05F530
:1003600048EA0508C6F800804D68ED005BD5344DBD
:10037000AE6946F00106AE61AD6924F0030605F0F2
:10038000010500952F4D06EB050CDCF80850A6077B
:10039000360F07FA06F825EA0805DFF8AC80404575
:1003A00003D14FF0000810E03DE0DFF8A0804045A9
:1003B00002D14FF0010808E0DFF89480404502D1F7
:1003C0004FF0020801E04FF0030808FA06F848EA87
:1003D0000508CCF808804D68D9F80060ED024D465C
:1003E00001D5164300E096432E604D68DAF80060B0
:1003F000AD02554601D5164300E096432E604D6888
:10040000DBF80060AD035D4601D5164300E096437E
:100410002E604D68DEF80060ED03754601D5164389
:1004200000E096432E60641C0A6832FA04F57FF4FB
:100430003FAFBDE8F88F0000080401400000111034
:10044000001002400000014000080140000C014083
:1004500000100140C26821EA02030A4043EA024157
:10046000016170470AB1016170470904FBE70000B0
:1004700001488068704700002C0000200248816815
:1004800002781144816070472C000020074810B5A5
:10049000016841F010010160032000F06DF80F20A9
:1004A00000F006F800F024F8002010BD0020024003
:1004B00070B50D4D04464FF47A712878B1FBF0F019
:1004C0000A490968B1FBF0F000F0B4FA48B9102C01
:1004D00007D200222146501E00F02EF800206C604A
:1004E00070BD012070BD00002C00002038000020ED
:1004F000094808B5816941F001018161816901F014
:1005000001010091C16941F08051C161C06900F0F1
:100510008050009008BD000000100240002809DB58
:1005200000F01F02012191404009800000F1E0200D
:10053000C0F8001170470000F0B40E4B1B680C4669
:10054000C3F30223C3F10705042D00D90425191DA7
:10055000072901D2002300E0DB1E012606FA05F17F
:10056000491E214099409E40761E16403143F0BC02
:1005700000F0B6BD0CED00E0064900F00702086887
:100580004FF6FF03184040EA0220034A1043086078
:10059000704700000CED00E00000FA052DE9F0477F
:1005A0000F46050061D0434E306800F00700B842A6
:1005B00009D2306820F0070038433060306800F01E
:1005C0000700B84251D128683B4C810712D540073B
:1005D00003D5606840F4E06060602878000703D5C8
:1005E000606840F4605060606068A96820F0F000C6
:1005F000084360602878C00728D06868012810D0B8
:100600002168022810D0890700292EDA616821F0BC
:10061000030101436160FFF72BFF804641F28839F7
:100620000DE021688903EFE78901EDE7FFF720FF7F
:10063000A0EB0801494502D90320BDE8F0876068B6
:10064000696800F00C00B0EB810FEFD1306800F06A
:100650000700B8420BD9306820F0070038433060FB
:10066000306800F00700B84201D00120E5E72878A3
:10067000400705D56068E96820F4E06008436060E1
:100680002878000706D56068296920F4605040EAA0
:10069000C100606000F018F86168084AC1F30311F6
:1006A000515CC8400649086006480068FFF700FF33
:1006B0000020C2E70020024000100240361100086E
:1006C00038000020300000200E4A51680E4801F02A
:1006D0000C03042B11D0082B0FD10C48C1F383431A
:1006E000C903C05C0AD55168084AC1F34041921E53
:1006F000515C054A5043B0FBF1F070470449484350
:10070000704700000010024000127A002611000815
:1007100000093D002DE9F84F040070D02078C04D4D
:10072000C00749D06868C0F38100012807D0686815
:10073000C0F38100022809D16868C00306D5286883
:10074000800339D560680028E7D035E06068B0F5EF
:10075000803F0BD010B1B0F5A02F11D0286820F445
:1007600080302860286820F4802002E0286840F467
:1007700080302860606890B1FFF77AFE06460AE094
:10078000286840F480202860F0E700BFFFF770FE83
:10079000801B642873D828688003F7D50CE0FFF726
:1007A00067FE064605E000BFFFF762FE801B642877
:1007B000F0D828688003F7D420789A4E80074FF04D
:1007C00001094FF0000839D5686810F00C0F07D008
:1007D0006868C0F38100022809D16868C00306D4A4
:1007E0002868800714D52069012808D110E0206905
:1007F000B0B1C6F80090FFF73BFE074605E00AE1FE
:10080000FFF736FEC01B0228C4D828688007F7D53A
:100810002868616920F0F80040EAC10028600DE016
:10082000C6F80080FFF724FE074604E0FFF720FE2D
:10083000C01B022823D828688007F7D42078000737
:100840002CD57948A169D9B1C0F80090FFF710FE06
:10085000074604E0FFF70CFEC01B02280FD8686AA9
:100860008007F7D571484FF4FA510068B0FBF1F0FA
:10087000009000BF0098411E0091FAD20EE080E087
:10088000C0F80080FFF7F4FD074604E0FFF7F0FD35
:10089000C01B022875D8686A8007F7D42078400703
:1008A00060D5E8690027C00008D4E86940F08050AE
:1008B000E861E869012700F0805000905C48016819
:1008C000C90513D40168834641F480710160FFF7C4
:1008D000CFFD824606E000BFFFF7CAFDA0EB0A008D
:1008E00064284ED8DBF80000C005F5D5E068012883
:1008F0000AD008B1052813D0286A20F00100286228
:10090000286A20F0040002E0286A40F00100286212
:10091000E06841F2883B98B1FFF7AAFD82460BE000
:10092000286A40F004002862EEE700BFFFF7A0FD50
:10093000A0EB0A0159455AD8286A8007F6D50CE081
:10094000FFF796FD824605E0FFF792FDA0EB0A0156
:1009500059454CD8286A8007F6D41FB1E86920F0C1
:100960008050E861E06988B36968C1F381010229B8
:1009700044D00228C6F8608004D0FFF779FD044611
:1009800038E034E0FFF774FD074604E0FFF770FD40
:10099000C01B02282BD828688001F7D4206AB0F544
:1009A000803F05D16868A16820F400300843686082
:1009B000D4E908010843696821F4741108436860A8
:1009C000C6F86090FFF754FD044606E025E000BF3E
:1009D000FFF74EFD001B022809D828688001F7D5D3
:1009E0001BE000BFFFF744FD001B022802D90320D3
:1009F000BDE8F88F28688001F4D40EE00128F7D014
:100A00006868226A00F48031914204D1616A00F47E
:100A10007010884201D00120EAE70020E8E70000DA
:100A20000010024000004242800442423800002090
:100A30000070004010B5401EB0F1807F01D301204E
:100A400010BD4FF0E02460610F21601700F048FBFB
:100A50000020A06107202061002010BD7047704772
:100A600070B590F83C20012A23D0012480F83C4046
:100A7000022280F83D2003685A689D6822F07006C3
:100A80000A6832435A600C4B02689A4205D0B2F1B0
:100A9000804F02D0094B9A4204D1496825F0800367
:100AA0001943916080F83D40002180F83C100846D1
:100AB00070BD022070BD0000002C01400004004009
:100AC00010B5040003D094F83D0010B107E00120F8
:100AD00010BD002084F83C00204600F01FF80220E2
:100AE00084F83D00211D206800F096FA012084F86A
:100AF000460084F83E0084F83F0084F8400084F803
:100B0000410084F8420084F8430084F8440084F8EB
:100B1000450084F83D00002010BD000008B50068C5
:100B2000B0F1804F12D10A48C16941F00101C161A1
:100B3000C069002200F00100009011461C20FFF760
:100B4000FBFCBDE808401C20FFF7E8BC08BD000026
:100B50000010024090F83D10012901D0012070479B
:100B6000022180F83D100168CA6842F00102CA60A3
:100B700000680A49884205D0B0F1804F02D0084988
:100B8000884204D1816801F00701062903D0016879
:100B900041F001010160002070470000002C01407D
:100BA0000004004070B5044690F83C000025012880
:100BB00017D0012684F83C60022084F83D002068AC
:100BC000826822F0770222F47F428260086850280F
:100BD00038D00DDC20284FD005DC90B3102811D17F
:100BE0004AE0022070BD302846D040280AD13BE0C0
:100BF00060282FD070280DD0B0F5805F03D0B0F5FD
:100C0000005F12D0012584F83D60002084F83C008C
:100C1000284670BDCB68D1E90121206800F02AFA8E
:100C20002068816841F0770109E0CB68D1E90121B2
:100C3000206800F01FFA2068816841F480418160DB
:100C4000E1E719E0CA684968206800F025FA5021F8
:100C5000206806E0CA684968206800F02EFA602122
:100C6000206800F011FACEE7CA684968206800F0F1
:100C700013FA40212068F4E7226801461046F0E7A5
:100C8000704770B50446006801694FF00005C9431C
:100C9000890715D4C168C943890711D4E91E0161C8
:100CA00001202077206880698007204602D0FFF766
:100CB000E7FF04E000F098F8204600F096F825776A
:100CC00020680169C943490717D4C168C943490766
:100CD00013D46FF00401016102202077206880693D
:100CE00010F4407F204602D0FFF7CAFF04E000F076
:100CF0007BF8204600F079F8257720680169C94320
:100D0000090716D4C168C943090712D46FF0080156
:100D10000161042020772068C0698007204602D046
:100D2000FFF7AEFF04E000F05FF8204600F05DF84A
:100D3000257720680169C943C90617D4C168C9432A
:100D4000C90613D46FF010010161082020772068D4
:100D5000C06910F4407F204602D0FFF791FF04E005
:100D600000F042F8204600F040F82577206801693D
:100D7000C943C90708D1C168C943C90704D1891E3D
:100D80000161204600F032F820680169C943090674
:100D900009D4C168C943090605D46FF08001016117
:100DA0002046FFF75BFE20680169C943490609D464
:100DB000C168C943490605D46FF04001016120466E
:100DC00000F01BF820680169C94389060BD4C1688B
:100DD000C943890607D46FF0200101612046BDE8B0
:100DE0007040FFF73CBE70BD704770470068B0F1BF
:100DF000804F01D100F004B870477047FEE7000053
:100E00000149012008707047280000202DE9F043B7
:100E100085B00025214800950195029503958169CB
:100E200041F010018161816901F010010491816933
:100E300041F0040181618069DFF8648000F0040002
:100E4000049001224FF4C0414046FFF70BFBDFF84E
:100E5000549042F20607002239464846FFF702FB4B
:100E60000124B81FCDE900040226CDE902466946F7
:100E70004046FFF70FFAA0038DE87100694640462F
:100E8000FFF708FA01AA009782E870006946484611
:100E9000FFF700FA05B0BDE8F08300000010024043
:100EA000001001400008014010B586B0002417482A
:100EB000009401940294039404944FF080410594AB
:100EC00001603F21C0E9011440F2F311C0E90314AD
:100ED00080218161FFF7F4FD08B1FFF7D8F94FF4E5
:100EE0008050009069460948FFF75CFE08B1FFF7A3
:100EF000CEF9049404A905480594FFF7B1FD002834
:100F000001D0FFF7C4F906B010BD00003C0000207E
:100F1000FEE7FEE770B50F4D2878012803D0BDE845
:100F2000704000F03FB86878401C6870002028705E
:100F3000094E044606EBC4006B7841788278491E5E
:100F400019408A4201D140688047641CE4B2052CF4
:100F5000F0D370BD28000020000000204FF40051A5
:100F60000148FFF777BA0000001001404FF48041BC
:100F70000148FFF76FBA000000100140022101484C
:100F8000FFF768BA0008014004210148FFF762BA80
:100F9000000801404FF400510148FFF75BBA000020
:100FA00000080140704770477047FFF767BA30B5D7
:100FB0008FB028216846FFF707F914210AA8FFF728
:100FC00003F90225012004900095102005900024CB
:100FD0004FF4C010CDE9084007956846FFF79AFB2B
:100FE00008B172B6FEE70F20CDE90A054FF4806024
:100FF000CDE90C4001210AA80E94FFF7CFFA002892
:1010000001D072B6FEE70FB030BD70470148FFF760
:1010100038BE00003C00002070B50268134B144C31
:101020004FF08046984203D0B04201D0A04203D195
:1010300022F070054A682A43984203D0B04201D09A
:10104000A04203D122F44074CA6822434C6922F0C2
:101050008002224302608A68C2620A688262984201
:1010600001D1096901630121416170BD002C01407A
:101070000004004010B5846842EA032224F47F444F
:101080000A432243826010BD826822F070020A4344
:1010900042F007018160704710B5036A046A24F0CA
:1010A00001040462846924F0F00444EA021423F089
:1010B0000A020A438461026210BD10B5036A046A21
:1010C00024F010040462846923F0A00324F4704423
:1010D00044EA023243EA01118261016210BDFEE777
:1010E0000907090E002804DB00F1E02080F8001455
:1010F000704700F00F0000F1E02080F8141D7047E9
:10110000FFF7C4F9FFF753FFFFF780FEFFF7CCFEB0
:101110000348FFF71FFD00BFFFF7FCFEFCE70000E0
:101120003C000020010202030405060708090A0B1F
:101130000C0D0E0F10100000000000000000010256
:1011400003040607080900006811000800000020D9
:101150003C00000028010008A41100083C00002009
:10116000AC06000044010008000100005D0F00080B
:10117000010200006D0F0008020401007D0F00084D
:1011800003080300890F000804080700950F0008F2
:10119000000000000100000010000000000000003E
:0411A0000024F40033
:04000005080000ED02
:00000001FF
